{
  "contractName": "SplitAssets",
  "abi": [
    {
      "constant": true,
      "inputs": [],
      "name": "assetName",
      "outputs": [
        {
          "internalType": "string",
          "name": "",
          "type": "string"
        }
      ],
      "payable": false,
      "stateMutability": "view",
      "type": "function"
    },
    {
      "constant": true,
      "inputs": [],
      "name": "assetValue",
      "outputs": [
        {
          "internalType": "uint256",
          "name": "",
          "type": "uint256"
        }
      ],
      "payable": false,
      "stateMutability": "view",
      "type": "function"
    },
    {
      "constant": true,
      "inputs": [],
      "name": "currentOwnersNumber",
      "outputs": [
        {
          "internalType": "uint256",
          "name": "",
          "type": "uint256"
        }
      ],
      "payable": false,
      "stateMutability": "view",
      "type": "function"
    },
    {
      "constant": true,
      "inputs": [],
      "name": "firstOwnerPrecent",
      "outputs": [
        {
          "internalType": "uint256",
          "name": "",
          "type": "uint256"
        }
      ],
      "payable": false,
      "stateMutability": "view",
      "type": "function"
    },
    {
      "constant": true,
      "inputs": [
        {
          "internalType": "uint256",
          "name": "",
          "type": "uint256"
        }
      ],
      "name": "investorAddressList",
      "outputs": [
        {
          "internalType": "address",
          "name": "",
          "type": "address"
        }
      ],
      "payable": false,
      "stateMutability": "view",
      "type": "function"
    },
    {
      "constant": true,
      "inputs": [
        {
          "internalType": "uint256",
          "name": "",
          "type": "uint256"
        }
      ],
      "name": "investorPrecentList",
      "outputs": [
        {
          "internalType": "int256",
          "name": "",
          "type": "int256"
        }
      ],
      "payable": false,
      "stateMutability": "view",
      "type": "function"
    },
    {
      "constant": true,
      "inputs": [],
      "name": "maxOwnersNumber",
      "outputs": [
        {
          "internalType": "uint256",
          "name": "",
          "type": "uint256"
        }
      ],
      "payable": false,
      "stateMutability": "view",
      "type": "function"
    },
    {
      "constant": false,
      "inputs": [
        {
          "internalType": "string",
          "name": "name",
          "type": "string"
        }
      ],
      "name": "setAssetName",
      "outputs": [],
      "payable": false,
      "stateMutability": "nonpayable",
      "type": "function"
    },
    {
      "constant": false,
      "inputs": [
        {
          "internalType": "uint256",
          "name": "value",
          "type": "uint256"
        }
      ],
      "name": "setAssetValue",
      "outputs": [],
      "payable": false,
      "stateMutability": "nonpayable",
      "type": "function"
    },
    {
      "constant": true,
      "inputs": [],
      "name": "getAssetName",
      "outputs": [
        {
          "internalType": "string",
          "name": "",
          "type": "string"
        }
      ],
      "payable": false,
      "stateMutability": "view",
      "type": "function"
    },
    {
      "constant": true,
      "inputs": [],
      "name": "getAssetValue",
      "outputs": [
        {
          "internalType": "string",
          "name": "",
          "type": "string"
        }
      ],
      "payable": false,
      "stateMutability": "view",
      "type": "function"
    },
    {
      "constant": false,
      "inputs": [
        {
          "internalType": "string",
          "name": "name",
          "type": "string"
        },
        {
          "internalType": "uint256",
          "name": "value",
          "type": "uint256"
        },
        {
          "internalType": "uint256",
          "name": "maxOwnerNumber",
          "type": "uint256"
        },
        {
          "internalType": "uint256",
          "name": "keepPrecent",
          "type": "uint256"
        }
      ],
      "name": "uploadAsset",
      "outputs": [
        {
          "internalType": "string",
          "name": "",
          "type": "string"
        }
      ],
      "payable": false,
      "stateMutability": "nonpayable",
      "type": "function"
    },
    {
      "constant": true,
      "inputs": [],
      "name": "printAsset",
      "outputs": [
        {
          "internalType": "string",
          "name": "",
          "type": "string"
        }
      ],
      "payable": false,
      "stateMutability": "view",
      "type": "function"
    }
  ],
  "bytecode": "0x6080604052600a604051908082528060200260200182016040528015620000355781602001602082028038833980820191505090505b50600490805190602001906200004d929190620000ac565b50600a6040519080825280602002602001820160405280156200007f5781602001602082028038833980820191505090505b5060059080519060200190620000979291906200013b565b50348015620000a557600080fd5b50620001fb565b82805482825590600052602060002090810192821562000128579160200282015b82811115620001275782518260006101000a81548173ffffffffffffffffffffffffffffffffffffffff021916908373ffffffffffffffffffffffffffffffffffffffff16021790555091602001919060010190620000cd565b5b5090506200013791906200018d565b5090565b8280548282559060005260206000209081019282156200017a579160200282015b82811115620001795782518255916020019190600101906200015c565b5b509050620001899190620001d3565b5090565b620001d091905b80821115620001cc57600081816101000a81549073ffffffffffffffffffffffffffffffffffffffff02191690555060010162000194565b5090565b90565b620001f891905b80821115620001f4576000816000905550600101620001da565b5090565b90565b610dd8806200020b6000396000f3fe608060405234801561001057600080fd5b50600436106100cf5760003560e01c8063a71891c31161008c578063d6f9c3c311610066578063d6f9c3c314610455578063e17e44e4146104c3578063e294f92e14610505578063f001ad3a14610588576100cf565b8063a71891c314610386578063bddb8cb8146103a4578063c9230c5d146103d2576100cf565b80630747f006146100d4578063092d4eb5146100f25780630daa6cad146101755780635fab7e81146101935780637f889d67146101b157806398545d1a14610303575b600080fd5b6100dc610643565b6040518082815260200191505060405180910390f35b6100fa610649565b6040518080602001828103825283818151815260200191508051906020019080838360005b8381101561013a57808201518184015260208101905061011f565b50505050905090810190601f1680156101675780820380516001836020036101000a031916815260200191505b509250505060405180910390f35b61017d6106eb565b6040518082815260200191505060405180910390f35b61019b6106f1565b6040518082815260200191505060405180910390f35b610288600480360360808110156101c757600080fd5b81019080803590602001906401000000008111156101e457600080fd5b8201836020820111156101f657600080fd5b8035906020019184600183028401116401000000008311171561021857600080fd5b91908080601f016020809104026020016040519081016040528093929190818152602001838380828437600081840152601f19601f8201169050808301925050505050505091929192908035906020019092919080359060200190929190803590602001909291905050506106f7565b6040518080602001828103825283818151815260200191508051906020019080838360005b838110156102c85780820151818401526020810190506102ad565b50505050905090810190601f1680156102f55780820380516001836020036101000a031916815260200191505b509250505060405180910390f35b61030b610813565b6040518080602001828103825283818151815260200191508051906020019080838360005b8381101561034b578082015181840152602081019050610330565b50505050905090810190601f1680156103785780820380516001836020036101000a031916815260200191505b509250505060405180910390f35b61038e6108b3565b6040518082815260200191505060405180910390f35b6103d0600480360360208110156103ba57600080fd5b81019080803590602001909291905050506108b9565b005b6103da6108c3565b6040518080602001828103825283818151815260200191508051906020019080838360005b8381101561041a5780820151818401526020810190506103ff565b50505050905090810190601f1680156104475780820380516001836020036101000a031916815260200191505b509250505060405180910390f35b6104816004803603602081101561046b57600080fd5b8101908080359060200190929190505050610961565b604051808273ffffffffffffffffffffffffffffffffffffffff1673ffffffffffffffffffffffffffffffffffffffff16815260200191505060405180910390f35b6104ef600480360360208110156104d957600080fd5b810190808035906020019092919050505061099d565b6040518082815260200191505060405180910390f35b61050d6109be565b6040518080602001828103825283818151815260200191508051906020019080838360005b8381101561054d578082015181840152602081019050610532565b50505050905090810190601f16801561057a5780820380516001836020036101000a031916815260200191505b509250505060405180910390f35b6106416004803603602081101561059e57600080fd5b81019080803590602001906401000000008111156105bb57600080fd5b8201836020820111156105cd57600080fd5b803590602001918460018302840111640100000000831117156105ef57600080fd5b91908080601f016020809104026020016040519081016040528093929190818152602001838380828437600081840152601f19601f8201169050808301925050505050505091929192905050506109d0565b005b60025481565b606060018054600181600116156101000203166002900480601f0160208091040260200160405190810160405280929190818152602001828054600181600116156101000203166002900480156106e15780601f106106b6576101008083540402835291602001916106e1565b820191906000526020600020905b8154815290600101906020018083116106c457829003601f168201915b5050505050905090565b60065481565b60035481565b6060610702856109d0565b61070b846108b9565b82600281905550600160038190555033600460008154811061072957fe5b9060005260206000200160006101000a81548173ffffffffffffffffffffffffffffffffffffffff021916908373ffffffffffffffffffffffffffffffffffffffff1602179055506064600560008154811061078157fe5b906000526020600020018190555081600681905550610809604051806060016040528060238152602001610d8160239139866040518060400160405280600981526020017f2c2076616c75653a2000000000000000000000000000000000000000000000008152506107f46000546109ea565b60405180602001604052806000815250610b17565b9050949350505050565b6060806108aa6040518060400160405280600c81526020017f4173736574204e616d653a200000000000000000000000000000000000000000815250610857610649565b6040518060400160405280600e81526020017f0a41737365742056616c75653a200000000000000000000000000000000000008152506108956109be565b60405180602001604052806000815250610b17565b90508091505090565b60005481565b8060008190555050565b60018054600181600116156101000203166002900480601f0160208091040260200160405190810160405280929190818152602001828054600181600116156101000203166002900480156109595780601f1061092e57610100808354040283529160200191610959565b820191906000526020600020905b81548152906001019060200180831161093c57829003601f168201915b505050505081565b6004818154811061096e57fe5b906000526020600020016000915054906101000a900473ffffffffffffffffffffffffffffffffffffffff1681565b600581815481106109aa57fe5b906000526020600020016000915090505481565b60606109cb6000546109ea565b905090565b80600190805190602001906109e6929190610cdb565b5050565b60606000821415610a32576040518060400160405280600181526020017f30000000000000000000000000000000000000000000000000000000000000008152509050610b12565b600082905060005b60008214610a5c578080600101915050600a8281610a5457fe5b049150610a3a565b6060816040519080825280601f01601f191660200182016040528015610a915781602001600182028038833980820191505090505b50905060006001830390505b60008614610b0a57600a8681610aaf57fe5b0660300160f81b82828060019003935081518110610ac957fe5b60200101907effffffffffffffffffffffffffffffffffffffffffffffffffffffffffffff1916908160001a905350600a8681610b0257fe5b049550610a9d565b819450505050505b919050565b606085858585856040516020018086805190602001908083835b60208310610b545780518252602082019150602081019050602083039250610b31565b6001836020036101000a03801982511681845116808217855250505050505090500185805190602001908083835b60208310610ba55780518252602082019150602081019050602083039250610b82565b6001836020036101000a03801982511681845116808217855250505050505090500184805190602001908083835b60208310610bf65780518252602082019150602081019050602083039250610bd3565b6001836020036101000a03801982511681845116808217855250505050505090500183805190602001908083835b60208310610c475780518252602082019150602081019050602083039250610c24565b6001836020036101000a03801982511681845116808217855250505050505090500182805190602001908083835b60208310610c985780518252602082019150602081019050602083039250610c75565b6001836020036101000a03801982511681845116808217855250505050505090500195505050505050604051602081830303815290604052905095945050505050565b828054600181600116156101000203166002900490600052602060002090601f016020900481019282601f10610d1c57805160ff1916838001178555610d4a565b82800160010185558215610d4a579182015b82811115610d49578251825591602001919060010190610d2e565b5b509050610d579190610d5b565b5090565b610d7d91905b80821115610d79576000816000905550600101610d61565b5090565b9056fe41737365742055706c6f61646564205375636365737366756c6c7921204e616d653a20a265627a7a72315820b5537cf3da638890102f5fd78e96d21c4f7e33e697b4a5f359bee47e75dbc1c464736f6c63430005100032",
  "source": "// SPDX-License-Identifier: MIT\r\npragma solidity >=0.4.22 <0.9.0;\r\n\r\ncontract SplitAssets {\r\n    uint public assetValue;\r\n    string public assetName;\r\n    uint public maxOwnersNumber;\r\n    uint public currentOwnersNumber;\r\n    address[] public investorAddressList = new address[](10);\r\n    int[] public investorPrecentList = new int[](10);\r\n    uint public firstOwnerPrecent;\r\n\r\n    function setAssetName(string memory name) public{\r\n        assetName = name;\r\n    }\r\n\r\n    function setAssetValue(uint value) public{\r\n        assetValue = value;\r\n    }\r\n\r\n    function getAssetName() public view returns (string memory){\r\n        return assetName;\r\n    }\r\n\r\n    function getAssetValue() public view returns (string memory){\r\n        return uint2str(assetValue);\r\n    }\r\n \r\n    function uploadAsset(string memory name, uint value, uint maxOwnerNumber, uint keepPrecent) public returns (string memory) {\r\n        setAssetName(name);\r\n        setAssetValue(value);\r\n        //console.log(\"updating name to \" + name);\r\n        maxOwnersNumber = maxOwnerNumber;\r\n        currentOwnersNumber = 1;\r\n        investorAddressList[0] = msg.sender;\r\n        investorPrecentList[0] = 100;\r\n        firstOwnerPrecent = keepPrecent;\r\n\r\n        return append('Asset Uploaded Successfully! Name: ', name, \", value: \", uint2str(assetValue), \"\");\r\n    }\r\n\r\n    function printAsset() public view returns (string memory){\r\n        string memory details = append(\"Asset Name: \", getAssetName(), \"\\nAsset Value: \", getAssetValue(), \"\");\r\n        return details;\r\n    }\r\n\r\n    function uint2str(uint i) internal pure returns (string memory){\r\n        if (i == 0) return \"0\";\r\n        uint j = i;\r\n        uint length;\r\n        while (j != 0){\r\n            length++;\r\n            j /= 10;\r\n        }\r\n        bytes memory bstr = new bytes(length);\r\n        uint k = length - 1;\r\n        while (i != 0){\r\n            bstr[k--] = byte(uint8(48 + i % 10));\r\n            i /= 10;\r\n        }\r\n    return string(bstr);\r\n    }\r\n\r\n    function append(string memory a, string memory b, string memory c, string memory d, string memory e) internal pure returns (string memory) {\r\n        return string(abi.encodePacked(a, b, c, d, e));\r\n    }\r\n\r\n}",
  "sourcePath": "D:/block_chain/hello-eth/node_modules/.bin/contracts/SplitAssets.sol",
  "compiler": {
    "name": "solc",
    "version": "0.5.16+commit.9c3226ce.Emscripten.clang"
  },
  "schemaVersion": "3.3.3",
  "updatedAt": "2021-02-22T13:43:29.880Z",
  "networkType": "ethereum",
  "devdoc": {
    "methods": {}
  },
  "userdoc": {
    "methods": {}
  }
}